:100085000000000000000000FF080808FF000E1532
:1000950015150D00FE010200FE0102000609090901
:1000A5000600FD0000000000000000000000000048
:10000300E4F509F50A1200F2E4F508C3E5089408DB
:10001300748094805014E508250990008593FD7C35
:1000230000AF081200B5050880E1050AD3E50A947C
:100033000A7480948040D1E4F50A0509D3E5099454
:0C004300207480948040C1E4F50980BC6A
:1000D500AE071FEE600A7E027DEFDDFEDEFC80F0DE
:0100E50022F8
:0500F200C2B6C2B522F8
:02004F00AD07FB
:10005100E4FBEBC394087480948050237E00748089
:10006100A803088006CEA2E713CE13D8F8FFEDF55A
:1000710082EF558224FF92B4D2B6C2B60B80D3D29E
:03008100B5C2B550
:010084002259
:1000B500AA07AF0512004FAF02A807748008800297
:1000C500C313D8FCF4F5807F011200D57580FF229B
:030000000200E615
:0C00E600787FE4F6D8FD75810A02000363
:00000001FF
