:02004800AD0702
:10004A00E4FBEBC394087480948050237E00748090
:10005A00A803088006CEA2E713CE13D8F8FFEDF561
:10006A0082EF558224FF92B4D2B6C2B60B80D3D2A5
:03007A00B5C2B557
:01007D002260
:10007E00AA07AF05120048AF02A8077480088002D5
:10008E00C313D8FCF4F5807F0112009E7580FF2209
:10000300C2B6C2B57D307C00E4FF12007E7D787CF1
:10001300007F0112007E7D7C7C007F0212007E7DCA
:100023003E7C007F0312007E7D7C7C007F041200F7
:100033007E7D787C007F0512007E7D307C007F060C
:0500430012007E80BFE9
:10009E00AE071FEE600A7E027DEFDDFEDEFC80F015
:0100AE00222F
:030000000200AF4C
:0C00AF00787FE4F6D8FD7581070200039D
:00000001FF
