:0C03C30048656C6C6F20576F726C640012
:1002E40012038F7BFF7A0379C37D017F01120330F0
:1002F4001200038F22E52260F7FB7A00750C027D61
:08030400017F0212030C80E8E6
:1003A300AE071FEE600A7E027DEFDDFEDEFC80F00D
:0103B3002227
:0603B400C2A58F80D2A754
:0803BA007F027EEFDEFEDFFC96
:0103C2002218
:0A03DB00C2A61203B4C2A70203BABF
:10035300CFCDCFCECCCE12018C7C007D0A12018C86
:04036300ED2430FF56
:0A036700D2A61203B4C2A70203BA23
:10037100AE07EEFB7A0064017004ED148009EB64B2
:0E038100024A7009ED243F4480FF1203DB2284
:10038F007F381203DB7F0C1203DB7F061203DB7F48
:04039F00010203DB79
:0A03E500AC03120371AF04020367BA
:060330008B088A09890A0E
:10033600120371E4FDAB08AA09A90A8D8275830030
:0C03460012014DFF60061203670D80E9F4
:010352002288
:0A02B300EF24FFFDEE34FFFC7F0A8C
:0802BD008E0D8F0E8C0F8D10C9
:1002C5007F017E00E4FBEBC39510E50F6480F874B5
:0E02D5008098500AAC0DAD0E12017A0B80E835
:0102E30022F8
:04030C008A0A8B0BC3
:10031000120371AA0CEAFF7E00D3940074809480CB
:0F032000400D1202B3AC0AAD0B1203531A80E664
:01032F0022AB
:04022C008B828A83B4
:10023000120371C3E58364809480400D7F2B120309
:100240006785831685821780107F2D120367C3E4AC
:100250009582F517E49583F516AA15EAFF7E00D37B
:10026000940074809480400D1202B3AC16AD171246
:0502700003531A80E6B3
:010275002266
:0401E1008A1A8B1BD0
:1001E500120371AA1CEAD39400748094804037EA04
:1001F50024FFFDE434FFFC7F107E001202BDAC1A23
:10020500AD1BCFCDCFCECCCE12018CEF540FFEC39C
:10021500940A74809480EE5004243080022437FFC1
:060225001203671A80BFFE
:01022B0022B0
:040276008A1F8B2030
:10027A00120371AA21EAFF7E00D39400748094804D
:10028A004026EF24FFFDEE34FFFC7F021202BDACD4
:10029A001FAD20CFCDCFCECCCE12018CEF5401248E
:0802AA0030FF1203671A80CD3A
:0102B2002229
:10000300E4F5087590FFC2932097107F141203A3A1
:100013003097FD7F141203A37508012096107F14F7
:100023001203A33096FD7F141203A37508052095D0
:10003300107F141203A33095FD7F141203A37508D8
:10004300092094107F141203A33094FD7F1412032C
:10005300A375080D7590FFC2922097107F141203A9
:10006300A33097FD7F141203A37508022096107F17
:10007300141203A33096FD7F141203A37508062000
:1000830095107F141203A33095FD7F141203A375FB
:10009300080A2094107F141203A33094FD7F1412D6
:1000A30003A375080E7590FFC2912097107F141259
:1000B30003A33097FD7F141203A375080320961042
:1000C3007F141203A33096FD7F141203A375080750
:1000D3002095107F141203A33095FD7F141203A300
:1000E30075080B2094107F141203A33094FD7F1422
:1000F3001203A375080F7590FFC2902097107F1409
:100103001203A33097FD7F141203A37508042096EE
:10011300107F141203A33096FD7F141203A37508F6
:10012300082095107F141203A33095FD7F1412034A
:10013300A375080C2094107F141203A33094FD7F41
:09014300141203A3750810AF08A3
:01014C002290
:030000000203CF29
:0C03CF00787FE4F6D8FD7581220202E47C
:10014D00BB010CE58229F582E5833AF583E0225067
:10015D0006E92582F8E622BBFE06E92582F8E222B1
:0D016D00E58229F582E5833AF583E49322CB
:10017A00EF8DF0A4A8F0CF8CF0A428CE8DF0A42E99
:02018A00FE2253
:10018C00BC000BBE0029EF8DF084FFADF022E4CC57
:10019C00F875F008EF2FFFEE33FEEC33FCEE9DEC20
:1001AC00984005FCEE9DFE0FD5F0E9E4CEFD22ED66
:1001BC00F8F5F0EE8420D21CFEADF075F008EF2FB0
:1001CC00FFED33FD4007985006D5F0F222C398FDA1
:0501DC000FD5F0EA223E
:00000001FF
