:0B03A40041444A204E544320524700C1
:0403C3000222000012
:10018E001203707BFF7A0379A47D017F01120311A4
:10019E007F9C1201238E228F23750C03AB23AA2280
:1001AE007D017F021202ED7FDC1201238E228F234E
:1001BE00750C03AB23AA227D057F021202ED7FACE4
:1001CE001201238E228F23750C03AB23AA227D09E5
:0C01DE007F021202ED7F0A12038480B43D
:06039500C2A58F80D2A773
:08039B007F027EEFDEFEDFFCB5
:0103A3002237
:0A03AF00C2A6120395C2A702039B29
:10033400CFCDCFCECCCE1200427C007D0A1200423B
:04034400ED2430FF75
:0A034800D2A6120395C2A702039B80
:10035200AE07EEFB7A0064017004ED148009EB64D1
:0E036200024A7009ED243F4480FF1203AF22CF
:100370007F381203AF7F0C1203AF7F061203AF7FEB
:04038000010203AFC4
:0A03B900AC03120352AF0402034824
:060311008B088A09890A2D
:10031700120352E4FDAB08AA09A90A8D827583006E
:0C032700120003FF60061203480D80E97D
:0103330022A7
:0A02BC00EF24FFFDEE34FFFC7F0A83
:0802C6008E0D8F0E8C0F8D10C0
:1002CE007F017E00E4FBEBC39510E50F6480F874AC
:0E02DE008098500AAC0DAD0E1200300B80E877
:0102EC0022EF
:0402ED008A0A8B0BE3
:1002F100120352AA0CEAFF7E00D39400748094800A
:0F030100400D1202BCAC0AAD0B1203341A80E699
:0103100022CA
:040235008B828A83AB
:10023900120352C3E58364809480400D7F2B12031F
:100249004885831685821780107F2D120348C3E4E1
:100259009582F517E49583F516AA15EAFF7E00D372
:10026900940074809480400D1202BCAC16AD171234
:0502790003341A80E6C9
:01027E00225D
:0401EA008A1A8B1BC7
:1001EE00120352AA1CEAD39400748094804037EA1A
:1001FE0024FFFDE434FFFC7F107E001202C6AC1A11
:10020E00AD1BCFCDCFCECCCE120042EF540FFEC3DE
:10021E00940A74809480EE5004243080022437FFB8
:06022E001203481A80BF14
:0102340022A7
:04027F008A1F8B2027
:10028300120352AA21EAFF7E00D394007480948063
:100293004026EF24FFFDEE34FFFC7F021202C6ACC2
:1002A3001FAD20CFCDCFCECCCE120042EF540124D0
:0802B30030FF1203481A80CD50
:0102BB002220
:10038400AE071FEE600A7E027DEFDDFEDEFC80F02C
:010394002246
:02012300AD0726
:10012500E4F508F509C2B6C2B5FBEBC394087480C3
:10013500948050237E007480A803088006CEA2E731
:1001450013CE13D8F8FFEDF582EF558224FF92B454
:10015500D2B6C2B60B80D3E4FBEBC3941074809483
:1001650080501ED2B6C2B630B7147E80E4A803080C
:100175008005CEC313CE13D8F94209EE42080B8091
:08018500D8D2B5E508FF7E00A9
:01018D00224F
:0300000002009764
:0C009700787FE4F6D8FD7581230200DEBE
:10000300BB010CE58229F582E5833AF583E02250B2
:1000130006E92582F8E622BBFE06E92582F8E222FC
:0D002300E58229F582E5833AF583E4932216
:10003000EF8DF0A4A8F0CF8CF0A428CE8DF0A42EE4
:02004000FE229E
:10004200BC000BBE0029EF8DF084FFADF022E4CCA2
:10005200F875F008EF2FFFEE33FEEC33FCEE9DEC6B
:10006200984005FCEE9DFE0FD5F0E9E4CEFD22EDB1
:10007200F8F5F0EE8420D21CFEADF075F008EF2FFB
:10008200FFED33FD4007985006D5F0F222C398FDEC
:050092000FD5F0EA2289
:1000A30002018EE493A3F8E493A34003F68001F2E4
:1000B30008DFF48029E493A3F85407240CC8C3335E
:1000C300C4540F4420C8834004F456800146F6DF2D
:1000D300E4800B01020408102040809003C3E47EF7
:1000E300019360BCA3FF543F30E509541FFEE49322
:1000F300A360010ECF54C025E060A840B8E493A3E9
:10010300FAE493A3F8E493A3C8C582C8CAC583CA13
:10011300F0A3C8C582C8CAC583CADFE9DEE780BECB
:0103C7000035
:00000001FF
