:0602B30068656C6C6F0031
:100097001202707B417D017F011202A97BFF7A0268
:1000A70079B37D037F01120211750C037B7B7A0004
:1000B7007D097F011201ED750C027BBE7AFF7D0D74
:1000C7007F01120135750C027BA67A007D017F0244
:1000D7001200EA750C087BAA7A007D047F021201E0
:0300E7007F80FE19
:06028400C2A58F80D2A785
:08028A007F027EEFDEFEDFFCC7
:010292002249
:0A029F00C2A6120284C2A702028A5E
:10023400CFCDCFCECCCE1200427C007D0A1200423C
:04024400ED2430FF76
:0A024800D2A6120284C2A702028AA5
:10025200AE07EEFB7A0064017004ED148009EB64D2
:0E026200024A7009ED243F4480FF12029F22E1
:100270007F3812029F7F0C12029F7F0612029F7F1F
:040280000102029FD6
:0A02A900AC03120252AF0402024837
:060211008B088A09890A2E
:10021700120252E4FDAB08AA09A90A8D8275830070
:0C022700120003FF60061202480D80E97F
:0102330022A8
:0A01BC00EF24FFFDEE34FFFC7F0A84
:0801C6008E0F8F108C118D12B9
:1001CE007F017E00E4FBEBC39512E5116480F874A9
:0E01DE008098500AAC0FAD101200300B80E874
:0101EC0022F0
:0401ED008A0A8B0BE4
:1001F100120252AA0CEAFF7E00D39400748094800C
:0F020100400D1201BCAC0AAD0B1202341A80E69C
:0102100022CB
:040135008B828A83AC
:10013900120252C3E58364809480400D7F2B120222
:100149004885830D85820E80107F2D120248C3E4F5
:100159009582F50EE49583F50DAA0CEAFF7E00D38E
:10016900940074809480400D1201BCAC0DAD0E1248
:0501790002341A80E6CB
:01017E00225E
:0400EA008A0A8B0BE8
:1000EE00120252AA0CEAD39400748094804037EA2C
:1000FE0024FFFDE434FFFC7F107E001201C6AC0A23
:10010E00AD0BCFCDCFCECCCE120042EF540FFEC3EF
:10011E00940A74809480EE5004243080022437FFB9
:06012E001202481A80BF16
:0101340022A8
:04017F008A0A8B0B52
:10018300120252AA0CEAFF7E00D39400748094807A
:100193004026EF24FFFDEE34FFFC7F021201C6ACC4
:1001A3000AAD0BCFCDCFCECCCE120042EF540124FB
:0801B30030FF1202481A80CD52
:0101BB002221
:0300000002029366
:0C029300787FE4F6D8FD75811202009718
:10000300BB010CE58229F582E5833AF583E02250B2
:1000130006E92582F8E622BBFE06E92582F8E222FC
:0D002300E58229F582E5833AF583E4932216
:10003000EF8DF0A4A8F0CF8CF0A428CE8DF0A42EE4
:02004000FE229E
:10004200BC000BBE0029EF8DF084FFADF022E4CCA2
:10005200F875F008EF2FFFEE33FEEC33FCEE9DEC6B
:10006200984005FCEE9DFE0FD5F0E9E4CEFD22EDB1
:10007200F8F5F0EE8420D21CFEADF075F008EF2FFB
:10008200FFED33FD4007985006D5F0F222C398FDEC
:050092000FD5F0EA2289
:00000001FF
