:10000E001203CB1204318F287E00EF6401700CE5D1
:10001E002770047D0180027D008D27EF64024E70F3
:10002E0006F525F524F526E5286403702DE525FD56
:10003E007C00E4FF12036E7F051203F8E524FD7CBD
:10004E00007F0112036E7F051203F8E526FD7C008A
:10005E007F0212036E7F051203F8E5286404701404
:10006E00FF1202E28F257F011202E28F247F02121D
:10007E0002E28F26E52575F00A84FD7C007F0112D1
:10008E00041FE52575F00A84E5F0FD7C007F021261
:10009E00041F7D0B7C007F0312041FE52475F00AFC
:1000AE0084FD7C007F0412041FE52475F00A84E5AC
:1000BE00F0FD7C007F0512041F7D0B7C007F061275
:1000CE00041FE52675F00A84FD7C007F0712041FCD
:1000DE00E52675F00A84E5F0FD7C007F0812041F0A
:0300EE00020011FC
:1002AF00E527602E0526C3E526946474809480406C
:1002BF0021E4F5260524E524943C748094804012B3
:1002CF00E4F5240525E525943C748094804003E4EF
:0302DF00F52522E0
:03000B000200F1FF
:1000F100C0E0C0F0C083C082C0D075D000C000C0D5
:0D01010001C002C003C004C005C006C00755
:10010E00758A18758CFC051FE51F7002051EC394B9
:10011E0014E51E94004009751E00751F0012026F33
:10012E000521E52170020520C39402E520940040CC
:10013E00097520007521001203920523E523700234
:10014E000522C3940AE52294004009752200752306
:04015E00001202AFDA
:10016200D007D006D005D004D003D002D001D000F1
:0B017200D0D0D082D083D0F0D0E0329B
:1003B1000C123F065B4F666D7D077F6F0040090998
:0903C100000A0A0A0A0A0A0A0AE3
:09041F00AE0574092FF8A60622AF
:10020900E4F580EF14B40800505490022175F0030E
:10021900A4C58325F0C5837302023902023D020297
:1002290041020245020249020251020259020261D7
:10023900D2A4800ED2A48012D2A48016D2A4801A8D
:10024900C2A4D2A3D2A28016C2A4D2A3C2A2800EF3
:10025900C2A4C2A3D2A28006C2A4C2A3C2A274121B
:060269002DF8E6F58022ED
:1003920074092508F8E6FD7C00AF08120209050879
:0E03A200D3E5089408748094804003E4F508C5
:0103B000222A
:1003CB005389F0438901758A18758CFCC28DD28CC8
:0703DB00D2A9D2AFC2B92282
:1003F800AE071FEE600A7E027DEFDDFEDEFC80F0B8
:0104080022D1
:05043100AF2BE4F52BE8
:0104360022A3
:1003E200E4FF20B1010F20B0027F0220B2027F039E
:0503F20020B3027F04AE
:0103F70022E3
:10026F0085292A1203E28F29AF2A7E00EF640170DD
:10027F0007E5297003752B01EF64024E7007E5291E
:10028F007003752B02E52A64037007E52970037567
:0F029F002B03E52A64047007E5297003752B040F
:0102AE00222D
:10036E008F2C8C2D8D2E1204287FA01203151204B3
:10037E0009AF2C120315120409AF2E120315120425
:04038E00090200035D
:0202E2008F2C5F
:1002E400E4F52D1204287FA0120315120409AF2C83
:1002F4001203151204091204287FA1120315120413
:10030400091203478F2D7F01120415120003AF2D2C
:0103140022C6
:09042800D2A0D2A1C2A0C2A122FF
:07000300C2A0D2A1D2A0228D
:02031500AD0732
:10031700E4FBEBC394087480948050237E007480C0
:10032700A803088006CEA2E713CE13D8F8FFEDF591
:0F03370082EF558224FF92A0D2A1C2A10B80D3E6
:010346002294
:10034700E4FFD2A0FEEEC39408748094805017D2C5
:10035700A130A00DA8067480088002C313D8FC4200
:0603670007C2A10E80DFB9
:01036D00226D
:0A041500EF24FF92A0D2A1C2A122A1
:0B040900D2A0D2A1A2A0E433FFC2A148
:0104140022C5
:0300000002017D7D
:0C017D00787FE4F6D8FD75812E0201C4E5
:1001890002000EE493A3F8E493A34003F68001F27E
:1001990008DFF48029E493A3F85407240CC8C33377
:1001A900C4540F4420C8834004F456800146F6DF46
:1001B900E4800B01020408102040809003B1E47E22
:1001C900019360BCA3FF543F30E509541FFEE4933B
:1001D900A360010ECF54C025E060A840B8E493A302
:1001E900FAE493A3F8E493A3C8C582C8CAC583CA2D
:1001F900F0A3C8C582C8CAC583CADFE9DEE780BEE5
:0103CA000032
:00000001FF
