:03010000010800F3
:0400E7007F147E0004
:1000EB00EF1FAC0670011E4C600A7D027CEFDCFE3C
:0400FB00DDFC80ECBC
:0100FF0022DE
:10008F007590FE20B0291200E730B0FD1200E70591
:10009F0008C3E5089408748094804003E4F508AF22
:1000AF0008A8077401088002C333D8FCF4F5902028
:1000BF00B1D11200E730B1FD1200E7E50870057508
:1000CF00080780021508AF08A8077401088002C34B
:0800DF0033D8FCF4F59080AB6E
:03000000020003F8
:0C000300787FE4F6D8FD75810802004A01
:10000F0002008FE493A3F8E493A34003F68001F278
:10001F0008DFF48029E493A3F85407240CC8C333F2
:10002F00C4540F4420C8834004F456800146F6DFC1
:10003F00E4800B0102040810204080900100E47E50
:10004F00019360BCA3FF543F30E509541FFEE493B6
:10005F00A360010ECF54C025E060A840B8E493A37D
:10006F00FAE493A3F8E493A3C8C582C8CAC583CAA8
:10007F00F0A3C8C582C8CAC583CADFE9DEE780BE60
:0101030000FB
:00000001FF
