:100A2A00543A0054483A00544C3A004F563A480057
:0A0A3A004F563A4C00202020200007
:10046D00120ABB7FE8120A9BE4FF1208198F0E7F58
:10047D00011208198F0FAF0EEF3395E0FED3EF94F5
:10048D007DEE64809480501FAF0FEF3395E0FEC377
:10049D00EF94C9EE6480947F400DD3E50F6480F82E
:1004AD00E50E6480985006750E19750F12120A87A5
:1004BD007BFF7A0A792A7D017F0112096F7BFF7A12
:1004CD000A792D7D017F0212096F7BFF7A0A79313E
:1004DD007D097F0212096FE50EFB3395E0FA751960
:1004ED00037D047F02120752E50FFB3395E0FA7589
:1004FD0019037D0C7F02120752120A44120B078F4B
:10050D0010120ABB1208AF8F0D8E0C8D0B8C0AE4E6
:10051D00FFFEFDFCAB0DAA0CA90BA80A1201B450ED
:10052D001E7B2D7D037F01120AEAAF0DAE0CAD0BC4
:10053D00AC0A12022D8F148E138D128C1180157B27
:10054D002B7D037F01120AEA850D14850C13850B93
:10055D0012850A11AF14AE13AD12AC1112027CABA1
:10056D0007AA067519037D047F011209277B2E7DCD
:10057D00077F01120AEAE4FFFE7DC87C42AB14AA94
:10058D0013A912A81112000E12027CE47B64FAF971
:10059D00F81203CD7519027D087F01120927E510A8
:1005AD00700302065FFF7E0064017017050EAD0E2D
:1005BD00ED3395E0FCD3ED947DEC648094804003A5
:1005CD00750E7DEF64024E7011150ED3E50F64802C
:1005DD00F8E50E6480985002050EE5106403701165
:1005ED00050FC3E50E6480F8E50F64809840021591
:1005FD000FE51064047017150FAF0FEF3395E0FE84
:10060D00C3EF94C9EE6480947F5003750FC9E50E56
:10061D00FB3395E0FA7519037D047F02120752E54D
:10062D000FFB3395E0FA7519037D0C7F021207520B
:10063D00E50EFD3395E0FCE4FF12094B7F05120A30
:10064D009BE50FFD3395E0FC7F0112094B7F0512F1
:10065D000A9BAC0EEC120248AB0DAA0CA90BA80A12
:10066D001201B4600A40087BFF7A0A79358019AC13
:10067D000FEC120248AB0DAA0CA90BA80A1201B47B
:10068D0050107BFF7A0A793A7D0C7F0112096F02B7
:10069D0005097BFF7A0A793F7D0C7F0112096F02F4
:0206AD0005093D
:03000B000206AF3B
:1006AF00C0E0C0F0C083C082C0D075D000C000C011
:0D06BF0001C002C003C004C005C006C00792
:1006CC00758A18758CFC0509E50970020508C39438
:1006DC0014E5089400400975080075090012079C80
:1006EC00D007D006D005D004D003D002D001D00062
:0B06FC00D0D0D082D083D0F0D0E0320C
:060AAC00C2A58F80D2A755
:080AB2007F027EEFDEFEDFFC97
:010ABA002219
:0A0AE000C2A6120AACC2A7020AB2B5
:1009B400CFCDCFCECCCE12033C7C007D0A12033CBB
:0409C400ED2430FFEF
:0A09C800D2A6120AACC2A7020AB2BE
:1009D200AE07EEFB7A0064017004ED148009EB644B
:0E09E200024A7009ED243F4480FF120AE02211
:100A87007F38120AE07F0C120AE07F06120AE07F25
:040A970001020AE06E
:0A0AEA00AC031209D2AF040209C8E0
:06096F008B158A168917A2
:100975001209D2E4FDAB15AA16A9178D827583005D
:0C0985001202FDFF60061209C80D80E997
:010991002243
:0A087E00EF24FFFDEE34FFFC7F0ABB
:080888008E1C8F1D8C1E8D1FBC
:100890007F017E00E4FBEBC3951FE51E6480F874C6
:0E08A0008098500AAC1CAD1D12032A0B80E894
:0108AE002227
:040927008A178B1888
:10092B001209D2AA19EAFF7E00D394007480948036
:0F093B00400D12087EAC17AD181209B41A80E6F1
:01094A00228A
:040752008B828A8389
:100756001209D2C3E58364809480400D7F2B120971
:10076600C885831A85821B80107F2D1209C8C3E4B1
:100776009582F51BE49583F51AAA19EAFF7E00D344
:10078600940074809480400D12087EAC1AAD1B1242
:0507960009B41A80E621
:01079B00223B
:040707008A228B2394
:10070B001209D2AA24EAD39400748094804037EA69
:10071B0024FFFDE434FFFC7F107E00120888AC221E
:10072B00AD23CFCDCFCECCCE12033CEF540FFEC3B7
:10073B00940A74809480EE5004243080022437FF96
:06074B001209C81A80BF6C
:010751002285
:0407DC008A278B28B5
:1007E0001209D2AA29EAFF7E00D394007480948073
:1007F0004026EF24FFFDEE34FFFC7F02120888AC98
:1008000027AD28CFCDCFCECCCE12033CEF54012460
:0808100030FF1209C81A80CD67
:0108180022BD
:100A9B00AE071FEE600A7E027DEFDDFEDEFC80F00E
:010AAB002228
:10094B008F158C168D17120AFE7FA012084C120AF7
:10095B00C8AF1512084C120AC8AF1712084C120A6E
:04096B00C8020003BB
:020819008F1539
:10081B00E4F516120AFE7FA012084C120AC8AF1597
:10082B0012084C120AC8120AFE7FA112084C120AB7
:10083B00C81208DA8F167F01120AF4120003AF16E2
:01084B00228A
:090AFE00D2A0D2A1C2A0C2A12223
:07000300C2A0D2A1D2A0228D
:02084C00AD07F6
:10084E00E4FBEBC394087480948050237E00748084
:10085E00A803088006CEA2E713CE13D8F8FFEDF555
:0F086E0082EF558224FF92A0D2A1C2A10B80D3AA
:01087D002258
:1008DA00E4FFD2A0FEEEC39408748094805017D22D
:1008EA00A130A00DA8067480088002C313D8FC4268
:0608FA0007C2A10E80DF21
:0109000022D4
:0A0AF400EF24FF92A0D2A1C2A122BC
:0B0AC800D2A0D2A1A2A0E433FFC2A183
:010AD3002200
:1009F000C2AFD2B7C2B77FE6DFFED2B77F20DFFE3D
:0D0A0000A2B7E433FE7FE6DFFED2AFAF0603
:010A0D0022C6
:100A5B00C2AFC2B77E04DEFEEF24FF92B77E17DE75
:050A6B00FED2B7D2AF7E
:010A70002263
:100A0E00C2AFC2B77F02DFFED2B77F02DFFEA2B750
:0B0A1E00E433FE7F17DFFED2AFAF060F
:010A290022AA
:02099200AD07AF
:10099400E4FCECC39408748094805013A80474019C
:0F09A400088002C333D8FC5DFF120A5B0C80E3AE
:0109B3002221
:10090100E4FDFCECC39408748094805016120A0E26
:10091100EF600DA8047401088002C333D8FC4205BE
:050921000C80E0AF05B1
:0109260022AE
:0D0ABB001209F07FCC1209927F44020992CB
:1008AF001209F07FCC1209927FBE12099212090130
:1008BF008F15120901EFFEE515FFFDAC06EC1202D4
:0B08CF0043E4FBFA7980784102011736
:050B0700AF2CE4F52C09
:010B0C0022C6
:100A7100E4FF20B1010F20B0027F0220B2027F0308
:050A810020B3027F0418
:010A8600224D
:10079C00852A2B120A718F2AAF2B7E00EF64017011
:1007AC0007E52A7003752C01EF64024E7007E52AE9
:1007BC007003752C02E52B64037007E52A70037532
:0F07CC002C03E52B64047007E52A7003752C04D9
:0107DB0022FB
:100A44005389F0438901758A18758CFCC28DD28C48
:070A5400D2A9D2AFC2B92202
:10000E00EC4D6011E8497017ED33EC3304600DE4EC
:10001E00FCFFFEFD22E933E8330470F80202E81219
:10002E0002B358046009E4CC24815006285009021A
:10003E0002F22840030202EFC0E0EB4A7044B9809E
:10004E0006D0E0FB0202DEEF4E701CBD8008EBFF17
:10005E00EAFEE9FD80EBE98DF0A4FEE5F00200F783
:10006E00E9CDF9EAFEEBFFEF89F0A4FCE5F0CE89CD
:10007E00F0A42EFFE435F0CD89F0A42DFEE435F08A
:10008E008067EF4E7005BD80D780C3EF8BF0A4ACB8
:10009E00F0EE8BF0A42CFCE435F0F8EF8AF0A42CF3
:1000AE00E5F038FCE433CB8DF0A42CFCE5F03BF806
:1000BE00EE8AF0A42CFCE5F038F8E433CF89F0A4F6
:1000CE002CFCE5F038CF3400CE89F0A42FFFE5F0FC
:1000DE003EFEE433C98DF0A42EFEE5F039CD8AF054
:1000EE00A42FFFE5F03EFEE43DFD33D0E0FB5007CC
:1000FE000BBB000F0202F2EC2CFCEF33FFEE33FED3
:06010E00ED33FD0202CA00
:100114000202F2EC5D046005E8590470030202E88F
:100124001202B3580460F6EC4860F2EC7004FDFE71
:10013400FF22C860DB2481C85009C39860025006BE
:100144000202EF9850CAF582E9294B4A7005AB8246
:100154000202DE75F0007C1A7880C3EF9BEE9AED04
:1001640099400DC3EF9BFFEE9AFEED99FDE842F036
:10017400DC23ACF0D0E0FFD0E0FED0E0FDAB822089
:10018400E7101BEB60BAEC2CFCEF33FFEE33FEED13
:1001940033FD0202CAE803F830E705C0F075F00049
:1001A400EF2FFFEE33FEED33FD40B830E7C280AAF7
:1001B40074F8CC6480CCC86480C8F58204604FC3F2
:1001C400EB9FF5F0EA9E42F0E99D42F0E89C45F091
:1001D400603C501DE5825FFFE582D313CB5BCBF41B
:1001E4002B5582FB50280ABA002409B90020088044
:1001F4001DE5825BFBE582D313CF5FCFF4C3132FDE
:100204005582FF50090EBE00050DBD00010CC3EB65
:100214009FF5F0EA9E42F0E99D42F0E89C45F060CB
:0902240007CC4820E701B3EC22ED
:10022D00ED33EC33600A047003BD8004ECB2E7FCDF
:01023D00229E
:10023E0075F020800E75F010800575F0087D007E3B
:10024E00007F003392D530D50312045FEC3340109B
:10025E00EF33FFEE33FEED33FDEC33FCD5F0ED2244
:0E026E00E5F0247EA2D513CC92E7CDCEFF2280
:10027C00EDD2E7CD33EC3392D524814006E4FFFE7A
:10028C00FDFC22FCE4CFCECDCC24E0501174FF80D9
:10029C00EDC3CC13CCCD13CDCE13CECF13CF047076
:0702AC00F030D5DE02045F13
:1002B300E9D2E7C933E833F892D5EDD2E7CD33EC91
:0702C30033FC5002B2D5220A
:1002CA00EC30E7100FBF000C0EBE00080DBD000495
:1002DA000BEB6014A2D5EB13FCED92E7FD2274FF41
:1002EA00FCFDFEFF22E480F8A2D574FF13FC7D809A
:0302FA00E480EFAE
:03000000020AD41D
:0C0AD400787FE4F6D8FD75812C02046DDB
:1002FD00BB010CE58229F582E5833AF583E02250B6
:10030D0006E92582F8E622BBFE06E92582F8E222FF
:0D031D00E58229F582E5833AF583E4932219
:10032A00EF8DF0A4A8F0CF8CF0A428CE8DF0A42EE7
:02033A00FE22A1
:10033C00BC000BBE0029EF8DF084FFADF022E4CCA5
:10034C00F875F008EF2FFFEE33FEEC33FCEE9DEC6E
:10035C00984005FCEE9DFE0FD5F0E9E4CEFD22EDB4
:10036C00F8F5F0EE8420D21CFEADF075F008EF2FFE
:10037C00FFED33FD4007985006D5F0F222C398FDEF
:05038C000FD5F0EA228C
:1003910075F008758200EF2FFFEE33FECD33CDCC23
:1003A10033CCC58233C5829BED9AEC99E5829840A6
:1003B1000CF582EE9BFEED9AFDEC99FC0FD5F0D683
:1003C100E4CEFBE4CDFAE4CCF9A88222B800C1B9AD
:1003D1000059BA002DEC8BF084CFCECDFCE5F0CBEB
:1003E100F97818EF2FFFEE33FEED33FDEC33FCEB24
:1003F10033FB10D703994004EB99FB0FD8E5E4F9DF
:10040100FA227818EF2FFFEE33FEED33FDEC33FCCB
:10041100C933C910D7059BE99A4007EC9BFCE99ABF
:10042100F90FD8E0E4C9FAE4CCFB2275F010EF2F04
:10043100FFEE33FEED33FDCC33CCC833C810D70704
:100441009BEC9AE899400AED9BFDEC9AFCE899F83F
:0E0451000FD5F0DAE4CDFBE4CCFAE4C8F922D2
:0E045F00C3E49FFFE49EFEE49DFDE49CFC22AE
:00000001FF
