:0D07810054656D70657261747572653A00A3
:1004620012078E7FE812076112073B7BFF7A07793A
:10047200817D017F0112068812078E1206138F25D5
:100482008E248D238C22E4FFFEFDFCAB25AA24A939
:1004920023A8221201A9501E7B2D7D017F02120783
:1004A200B1AF25AE24AD23AC221202228F258E24B9
:1004B2008D238C2280097B2B7D017F021207B1AF35
:1004C20025AE24AD23AC22120271AB07AA06750C2D
:1004D200037D027F021206647B2E7D057F021207D6
:1004E200B17F007E407D1C7C46AB25AA24A923A8AF
:1004F20022120003120271E47B107A27F9F8120328
:0E050200C2750C047D067F0212066402047AA4
:06077200C2A58F80D2A792
:080778007F027EEFDEFEDFFCD4
:010780002256
:0A07A700C2A6120772C2A70207786B
:1006CD00CFCDCFCECCCE1203317C007D0A120331BB
:0406DD00ED2430FFD9
:0A06E100D2A6120772C2A702077822
:1006EB00AE07EEFB7A0064017004ED148009EB6435
:0E06FB00024A7009ED243F4480FF1207A72237
:10073B007F381207A77F0C1207A77F061207A77F28
:04074B00010207A7F9
:0A07B100AC031206EBAF040206E1F0
:060688008B088A09890AB3
:10068E001206EBE4FDAB08AA09A90A8D8275830058
:0C069E001202F2FF60061206E10D80E976
:0106AA00222D
:0A05E200EF24FFFDEE34FFFC7F0A5A
:0805EC008E0D8F0E8C0F8D1097
:1005F4007F017E00E4FBEBC39510E50F6480F87483
:0E0604008098500AAC0DAD0E12031F0B80E85B
:0106120022C5
:040664008A0A8B0B68
:100668001206EBAA0CEAFF7E00D3940074809480F3
:0F067800400D1205E2AC0AAD0B1206CD1A80E65A
:010687002250
:04055B008B828A8382
:10055F001206EBC3E58364809480400D7F2B120657
:10056F00E185831685821780107F2D1206E1C3E483
:10057F009582F517E49583F516AA15EAFF7E00D349
:10058F00940074809480400D1205E2AC16AD1712E2
:05059F0006CD1A80E604
:0105A4002234
:040510008A1A8B1B9D
:100514001206EBAA1CEAD39400748094804037EA54
:1005240024FFFDE434FFFC7F107E001205ECAC1ABE
:10053400AD1BCFCDCFCECCCE120331EF540FFEC3C3
:10054400940A74809480EE5004243080022437FF8F
:060554001206E11A80BF4F
:01055A00227E
:0405A5008A1F8B20FE
:1005A9001206EBAA21EAFF7E00D39400748094809E
:1005B9004026EF24FFFDEE34FFFC7F021205ECAC70
:1005C9001FAD20CFCDCFCECCCE120331EF540124B5
:0805D90030FF1206E11A80CD8B
:0105E10022F7
:10076100AE071FEE600A7E027DEFDDFEDEFC80F04B
:010771002265
:10070900D2B7C2B77FE6DFFED2B77F20DFFEA2B73E
:09071900E433FE7FE6DFFEAF06CB
:0107220022B4
:10074F00C2B77E04DEFEEF24FF92B77E17DEFED225
:01075F00B7E2
:010760002276
:10072300C2B77F02DFFED2B77F02DFFEA2B7E43398
:07073300FE7F17DFFEAF0699
:01073A00229C
:0206AB00AD0799
:1006AD00E4FCECC39408748094805013A804740186
:0F06BD00088002C333D8FC5DFF12074F0C80E3A7
:0106CC00220B
:10063E00E4FDFCECC39408748094805016120723DA
:10064E00EF600DA8047401088002C333D8FC420584
:05065E000C80E0AF0577
:010663002274
:0D078E001207097FCC1206AB7F440206ABB8
:100613001207097FCC1206AB7FBE1206AB12063E51
:100623008F0812063EEFFEE508FFFDAC06EC120252
:0B06330038E4FBFA7980784102010CEA
:10000300EC4D6011E8497017ED33EC3304600DE4F7
:10001300FCFFFEFD22E933E8330470F80202DD122F
:1000230002A858046009E4CC248150062850090230
:1000330002E72840030202E4C0E0EB4A7044B980BF
:1000430006D0E0FB0202D3EF4E701CBD8008EBFF2D
:10005300EAFEE9FD80EBE98DF0A4FEE5F00200EC99
:10006300E9CDF9EAFEEBFFEF89F0A4FCE5F0CE89D8
:10007300F0A42EFFE435F0CD89F0A42DFEE435F095
:100083008067EF4E7005BD80D780C3EF8BF0A4ACC3
:10009300F0EE8BF0A42CFCE435F0F8EF8AF0A42CFE
:1000A300E5F038FCE433CB8DF0A42CFCE5F03BF811
:1000B300EE8AF0A42CFCE5F038F8E433CF89F0A401
:1000C3002CFCE5F038CF3400CE89F0A42FFFE5F007
:1000D3003EFEE433C98DF0A42EFEE5F039CD8AF05F
:1000E300A42FFFE5F03EFEE43DFD33D0E0FB5007D7
:1000F3000BBB000F0202E7EC2CFCEF33FFEE33FEE9
:06010300ED33FD0202BF16
:100109000202E7EC5D046005E8590470030202DDB0
:100119001202A8580460F6EC4860F2EC7004FDFE87
:10012900FF22C860DB2481C85009C39860025006C9
:100139000202E49850CAF582E9294B4A7005AB825C
:100149000202D375F0007C1A7880C3EF9BEE9AED1A
:1001590099400DC3EF9BFFEE9AFEED99FDE842F041
:10016900DC23ACF0D0E0FFD0E0FED0E0FDAB822094
:10017900E7101BEB60BAEC2CFCEF33FFEE33FEED1E
:1001890033FD0202BFE803F830E705C0F075F0005F
:10019900EF2FFFEE33FEED33FD40B830E7C280AA02
:1001A90074F8CC6480CCC86480C8F58204604FC3FD
:1001B900EB9FF5F0EA9E42F0E99D42F0E89C45F09C
:1001C900603C501DE5825FFFE582D313CB5BCBF426
:1001D9002B5582FB50280ABA002409B9002008804F
:1001E9001DE5825BFBE582D313CF5FCFF4C3132FE9
:1001F9005582FF50090EBE00050DBD00010CC3EB71
:100209009FF5F0EA9E42F0E99D42F0E89C45F060D6
:0902190007CC4820E701B3EC22F8
:10022200ED33EC33600A047003BD8004ECB2E7FCEA
:0102320022A9
:1002330075F020800E75F010800575F0087D007E46
:10024300007F003392D530D503120454EC334010B1
:10025300EF33FFEE33FEED33FDEC33FCD5F0ED224F
:0E026300E5F0247EA2D513CC92E7CDCEFF228B
:10027100EDD2E7CD33EC3392D524814006E4FFFE85
:10028100FDFC22FCE4CFCECDCC24E0501174FF80E4
:10029100EDC3CC13CCCD13CDCE13CECF13CF047081
:0702A100F030D5DE02045429
:1002A800E9D2E7C933E833F892D5EDD2E7CD33EC9C
:0702B80033FC5002B2D52215
:1002BF00EC30E7100FBF000C0EBE00080DBD0004A0
:1002CF000BEB6014A2D5EB13FCED92E7FD2274FF4C
:1002DF00FCFDFEFF22E480F8A2D574FF13FC7D80A5
:0302EF00E480EFB9
:0300000002079B59
:0C079B00787FE4F6D8FD75812502046229
:1002F200BB010CE58229F582E5833AF583E02250C1
:1003020006E92582F8E622BBFE06E92582F8E2220A
:0D031200E58229F582E5833AF583E4932224
:10031F00EF8DF0A4A8F0CF8CF0A428CE8DF0A42EF2
:02032F00FE22AC
:10033100BC000BBE0029EF8DF084FFADF022E4CCB0
:10034100F875F008EF2FFFEE33FEEC33FCEE9DEC79
:10035100984005FCEE9DFE0FD5F0E9E4CEFD22EDBF
:10036100F8F5F0EE8420D21CFEADF075F008EF2F09
:10037100FFED33FD4007985006D5F0F222C398FDFA
:050381000FD5F0EA2297
:1003860075F008758200EF2FFFEE33FECD33CDCC2E
:1003960033CCC58233C5829BED9AEC99E5829840B1
:1003A6000CF582EE9BFEED9AFDEC99FC0FD5F0D68E
:1003B600E4CEFBE4CDFAE4CCF9A88222B800C1B9B8
:1003C6000059BA002DEC8BF084CFCECDFCE5F0CBF6
:1003D600F97818EF2FFFEE33FEED33FDEC33FCEB2F
:1003E60033FB10D703994004EB99FB0FD8E5E4F9EA
:1003F600FA227818EF2FFFEE33FEED33FDEC33FCD7
:10040600C933C910D7059BE99A4007EC9BFCE99ACA
:10041600F90FD8E0E4C9FAE4CCFB2275F010EF2F0F
:10042600FFEE33FEED33FDCC33CCC833C810D7070F
:100436009BEC9AE899400AED9BFDEC9AFCE899F84A
:0E0446000FD5F0DAE4CDFBE4CCFAE4C8F922DD
:0E045400C3E49FFFE49EFEE49DFDE49CFC22B9
:00000001FF
