:1000FA007D017C007F0112008F7D027C007F02124D
:10010A00008F7D037C007F0312008F7D047C007FBB
:10011A000412008F7D057C007F0512008F7D067C0E
:10012A00007F0612008F7D077C007F0712008F80F8
:01013A00BF05
:10013B00AE071FEE600A7E027DEFDDFEDEFC80F077
:01014B002291
:0A014C0008083F065B4F666D7D0753
:10008F00EF14B4080050549000A475F003A4C58376
:10009F0025F0C583730200BC0200C00200C4020039
:1000AF00C80200CC0200D40200DC0200E4D2A4801B
:1000BF000ED2A48012D2A48016D2A4801AC2A4D2C7
:1000CF00A3D2A28016C2A4D2A3C2A2800EC2A4C27F
:1000DF00A3D2A28006C2A4C2A3C2A274082DF8E6BE
:0B00EF00F5807F0112013BE4F5802248
:03000000020003F8
:0C000300787FE4F6D8FD75810F02004AFA
:10000F000200FAE493A3F8E493A34003F68001F20D
:10001F0008DFF48029E493A3F85407240CC8C333F2
:10002F00C4540F4420C8834004F456800146F6DFC1
:10003F00E4800B010204081020408090014CE47E04
:10004F00019360BCA3FF543F30E509541FFEE493B6
:10005F00A360010ECF54C025E060A840B8E493A37D
:10006F00FAE493A3F8E493A3C8C582C8CAC583CAA8
:10007F00F0A3C8C582C8CAC583CADFE9DEE780BE60
:0101560000A8
:00000001FF
