:10043C0050617373576F7264004F4B2000455252DA
:01044C0000AF
:10014D001204287BFF7A04793C7D017F011203C9DB
:10015D001200038F1CE51C60F7D3940A7480948001
:10016D005041C3E5199404E51894005028AE1AAF18
:10017D001B7C007D0A12023B8E1A8F1BE51C75F04D
:10018D000A84E5F0251BF51BE4351AF51A0519E56A
:10019D001970020518750C04AB1BAA1A7D017F029C
:1001AD001203A5E51C640B7036E51BB4290DE51A89
:1001BD00B409087BFF7A04794580067BFF7A0479C0
:1001CD00497D0E7F011203C9E4F51AF51BF518F5EB
:1001DD0019750C04AB1BAA1A7D017F021203A5E54C
:1001ED001C640C600302015DF51AF51BF518F51979
:1001FD00750C04AB1BAA1A7D017F021203A5020127
:01020D005D93
:10044D00AE071FEE600A7E027DEFDDFEDEFC80F062
:01045D00227C
:06045E00C2A58F80D2A7A9
:080464007F027EEFDEFEDFFCEB
:01046C00226D
:0A047900C2A612045EC2A7020464CA
:1003EC00CFCDCFCECCCE12024D7C007D0A12024D69
:0403FC00ED2430FFBD
:0A040000D2A612045EC2A702046433
:10040A00AE07EEFB7A0064017004ED148009EB6418
:0E041A00024A7009ED243F4480FF120479224B
:100428007F381204797F0C1204797F061204797FD1
:040438000102047940
:0A048300AC0312040AAF04020400E7
:0603C9008B088A09890A75
:1003CF0012040AE4FDAB08AA09A90A8D82758300FD
:0C03DF0012020EFF60061204000D80E9FF
:0103EB0022EF
:0A037400EF24FFFDEE34FFFC7F0ACA
:08037E008E0D8F0E8C0F8D1007
:100386007F017E00E4FBEBC39510E50F6480F874F3
:0E0396008098500AAC0DAD0E12023B0B80E8B1
:0103A4002236
:0403A5008A0A8B0B2A
:1003A90012040AAA0CEAFF7E00D394007480948098
:0F03B900400D120374AC0AAD0B1203EC1A80E670
:0103C8002212
:0402ED008B828A83F3
:1002F10012040AC3E58364809480400D7F2B1204AD
:100301000085831685821780107F2D120400C3E4B7
:100311009582F517E49583F516AA15EAFF7E00D3B9
:10032100940074809480400D120374AC16AD1712C2
:0503310003EC1A80E658
:0103360022A4
:0402A2008A1F8B2004
:1002A60012040AAA21EAD39400748094804037EAA3
:1002B60024FFFDE434FFFC7F107E0012037EAC1F9A
:1002C600AD20CFCDCFCECCCE12024DEF540FFEC314
:1002D600940A74809480EE5004243080022437FF00
:0602E6001204001A80BFA3
:0102EC0022EF
:040337008A248B2564
:10033B0012040AAA26EAFF7E00D3940074809480EC
:10034B004026EF24FFFDEE34FFFC7F0212037EAC50
:10035B0024AD25CFCDCFCECCCE12024DEF54012400
:08036B0030FF1204001A80CDDE
:010373002267
:10000300E4F5087590FFC2932097107F1412044DF6
:100013003097FD7F1412044D7508012096107F144C
:1000230012044D3096FD7F1412044D75080520957A
:10003300107F1412044D3095FD7F1412044D750882
:10004300092094107F1412044D3094FD7F14120480
:100053004D75080D7590FFC2922097107F141204FE
:100063004D3097FD7F1412044D7508022096107FC2
:100073001412044D3096FD7F1412044D75080620AA
:1000830095107F1412044D3095FD7F1412044D75A5
:10009300080A2094107F1412044D3094FD7F14122B
:1000A300044D75080E7590FFC2912097107F1412AE
:1000B300044D3097FD7F1412044D750803209610EC
:1000C3007F1412044D3096FD7F1412044D750807FA
:1000D3002095107F1412044D3095FD7F1412044DAA
:1000E30075080B2094107F1412044D3094FD7F1477
:1000F30012044D75080F7590FFC2902097107F145E
:1001030012044D3097FD7F1412044D750804209698
:10011300107F1412044D3096FD7F1412044D7508A0
:10012300082095107F1412044D3095FD7F1412049E
:100133004D75080C2094107F1412044D3094FD7FEC
:090143001412044D750810AF08F8
:01014C002290
:0300000002046D8A
:0C046D00787FE4F6D8FD75812602014D71
:10020E00BB010CE58229F582E5833AF583E02250A5
:10021E0006E92582F8E622BBFE06E92582F8E222EF
:0D022E00E58229F582E5833AF583E4932209
:10023B00EF8DF0A4A8F0CF8CF0A428CE8DF0A42ED7
:02024B00FE2291
:10024D00BC000BBE0029EF8DF084FFADF022E4CC95
:10025D00F875F008EF2FFFEE33FEEC33FCEE9DEC5E
:10026D00984005FCEE9DFE0FD5F0E9E4CEFD22EDA4
:10027D00F8F5F0EE8420D21CFEADF075F008EF2FEE
:10028D00FFED33FD4007985006D5F0F222C398FDDF
:05029D000FD5F0EA227C
:00000001FF
