:100401007772697465204F4B000909007265616458
:05041100204F4B20000C
:10000300120416750C05AB23AA227D017F0112038E
:100013005A1201798F24EF640170150523E52370CB
:10002300020522750C05FBAA227D017F0112035AEA
:10003300E52464027016E523152370021522750C5E
:1000430005AB23AA227D017F0112035AE524640331
:10005300703AFCAD23FF12037E7F0512042AE522CA
:10006300FD7C007F0112037E7F0512042A7BFF7A49
:100073000479017D017F021203A27F0512042A7B0A
:10008300FF7A04790A7D017F021203A2E524640446
:1000930060030200147F0112029DEF7F00FEC00681
:1000A300C007E412029DEFFDD0E02DF523D0E0342C
:1000B30000F522750C05AB23FA7D017F0112035A6B
:1000C3007BFF7A04790D7D017F021203A27F051263
:1000D300042A7BFF7A04790A7D017F021203A202BC
:0200E300001407
:06043B00C2A58F80D2A7CC
:080441007F027EEFDEFEDFFC0E
:010449002290
:0A046200C2A612043BC2A702044127
:1003C500CFCDCFCECCCE1201247C007D0A120124E4
:0403D500ED2430FFE4
:0A03D900D2A612043BC2A7020441A1
:1003E300AE07EEFB7A0064017004ED148009EB6440
:0E03F300024A7009ED243F4480FF120462228A
:100416007F381204627F0C1204627F061204627F28
:040426000102046269
:0A046C00AC031203E3AF040203D94E
:0603A2008B088A09890A9C
:1003A8001203E3E4FDAB08AA09A90A8D827583004C
:0C03B8001200E5FF60061203D90D80E979
:0103C4002216
:0A030200EF24FFFDEE34FFFC7F0A3C
:08030C008E0D8F0E8C0F8D1079
:100314007F017E00E4FBEBC39510E50F6480F87465
:0E0324008098500AAC0DAD0E1201120B80E84D
:0103320022A8
:04035A008A0A8B0B75
:10035E001203E3AA0CEAFF7E00D39400748094800B
:0F036E00400D120302AC0AAD0B1203C51A80E654
:01037D00225D
:040216008B828A83CA
:10021A001203E3C3E58364809480400D7F2B1203AD
:10022A00D985831685821780107F2D1203D9C3E4DE
:10023A009582F517E49583F516AA15EAFF7E00D391
:10024A00940074809480400D120302AC16AD17120C
:05025A0003C51A80E657
:01025F00227C
:0401CB008A1A8B1BE6
:1001CF001203E3AA1CEAD39400748094804037EAA8
:1001DF0024FFFDE434FFFC7F107E0012030CAC1AE9
:1001EF00AD1BCFCDCFCECCCE120124EF540FFEC31B
:1001FF00940A74809480EE5004243080022437FFD8
:06020F001203D91A80BFA2
:0102150022C6
:040260008A1F8B2046
:100264001203E3AA21EAFF7E00D3940074809480F1
:100274004026EF24FFFDEE34FFFC7F0212030CAC9A
:100284001FAD20CFCDCFCECCCE120124EF5401240C
:0802940030FF1203D91A80CDDE
:01029C00223F
:10042A00AE071FEE600A7E027DEFDDFEDEFC80F085
:01043A00229F
:10017900E4F50820B1107F1412042A30B1FD7F1470
:1001890012042A75080120B0107F1412042A30B015
:10019900FD7F1412042A75080220B2107F1412047C
:1001A9002A30B2FD7F1412042A75080320B3107F88
:1001B9001412042A30B3FD7F1412042A750804AFFF
:0101C900082D
:0101CA002212
:09048000D2A0D2A1C2A0C2A122A7
:07048900C2A0D2A1D2A02203
:0202D000AD0778
:1002D200E4FBEBC394087480948050237E00748006
:1002E200A803088006CEA2E713CE13D8F8FFEDF5D7
:0F02F20082EF558224FF92A0D2A1C2A10B80D32C
:0103010022D9
:10033300E4FFD2A0FEEEC39408748094805017D2D9
:10034300A130A00DA8067480088002C313D8FC4214
:0603530007C2A10E80DFCD
:010359002281
:0A047600EF24FF92A0D2A1C2A12240
:0B044A00D2A0D2A1A2A0E433FFC2A107
:010455002284
:10037E008F088C098D0A1204807FA01202D01204FD
:10038E004AAF081202D012044AAF0A1202D0120467
:04039E004A02048982
:02029D008F08C8
:10029F00E4F5091204807FA01202D012044AAF08BD
:1002AF001202D012044A1204807FA11202D012044B
:1002BF004A1203338F097F01120476120489AF09A2
:0102CF00220C
:03000000020456A1
:0C045600787FE4F6D8FD758124020003D5
:1000E500BB010CE58229F582E5833AF583E02250D0
:1000F50006E92582F8E622BBFE06E92582F8E2221A
:0D010500E58229F582E5833AF583E4932233
:10011200EF8DF0A4A8F0CF8CF0A428CE8DF0A42E01
:02012200FE22BB
:10012400BC000BBE0029EF8DF084FFADF022E4CCBF
:10013400F875F008EF2FFFEE33FEEC33FCEE9DEC88
:10014400984005FCEE9DFE0FD5F0E9E4CEFD22EDCE
:10015400F8F5F0EE8420D21CFEADF075F008EF2F18
:10016400FFED33FD4007985006D5F0F222C398FD09
:050174000FD5F0EA22A6
:00000001FF
