:10038200436C6F636B3A0020203A20203A20200011
:0903A100011A35011C3B011B1778
:1001820012036E1203577BFF7A0379827D017F018E
:100192001202F87BFF7A0379897D017F021202F84D
:1001A200E51BFB7A00750C027D017F021202D4E589
:1001B2001CFB7A00750C027D047F021202D4E51A40
:0F01C200FB7A00750C027D077F021202D480D1F8
:03000B0002012EC1
:04012E00C0E0C0D09D
:10013200758A18758CFC0519E51970020518C394A7
:10014200E8E51894034034751800751900051AE59E
:100152001A943C748094804022751A00051CE51C98
:10016200943C748094804013751C00051BD3E51BDE
:0B0172009417748094804003751B00FC
:05017D00D0D0D0E032FB
:06039200C2A58F80D2A776
:080398007F027EEFDEFEDFFCB8
:0103A000223A
:0A03AB00C2A6120392C2A702039833
:10031B00CFCDCFCECCCE12004D7C007D0A12004D3E
:04032B00ED2430FF8E
:0A032F00D2A6120392C2A70203989F
:10033900AE07EEFB7A0064017004ED148009EB64EA
:0E034900024A7009ED243F4480FF1203AB22EC
:10036E007F381203AB7F0C1203AB7F061203AB7FF9
:04037E00010203ABCA
:0A03B500AC03120339AF0402032F5A
:0602F8008B088A09890A47
:1002FE00120339E4FDAB08AA09A90A8D82758300A1
:0C030E0012000EFF600612032F0D80E9A4
:01031A0022C0
:0A02A300EF24FFFDEE34FFFC7F0A9C
:0802AD008E0D8F0E8C0F8D10D9
:1002B5007F017E00E4FBEBC39510E50F6480F874C5
:0E02C5008098500AAC0DAD0E12003B0B80E885
:0102D3002208
:0402D4008A0A8B0BFC
:1002D800120339AA0CEAFF7E00D39400748094803C
:0F02E800400D1202A3AC0AAD0B12031B1A80E6E5
:0102F70022E4
:04021C008B828A83C4
:10022000120339C3E58364809480400D7F2B120351
:100230002F85831685821780107F2D12032FC3E42C
:100240009582F517E49583F516AA15EAFF7E00D38B
:10025000940074809480400D1202A3AC16AD171266
:05026000031B1A80E6FB
:010265002276
:0401D1008A1F8B20D6
:1001D500120339AA21EAD39400748094804037EA47
:1001E50024FFFDE434FFFC7F107E001202ADAC1F3E
:1001F500AD20CFCDCFCECCCE12004DEF540FFEC3E8
:10020500940A74809480EE5004243080022437FFD1
:0602150012032F1A80BF46
:01021B0022C0
:040266008A248B2536
:10026A00120339AA26EAFF7E00D394007480948090
:10027A004026EF24FFFDEE34FFFC7F021202ADACF4
:10028A0024AD25CFCDCFCECCCE12004DEF540124D4
:08029A0030FF12032F1A80CD82
:0102A2002239
:100357005389F0438901758A18758CFCC28DD28C3C
:07036700D2A9D2AFC2B922F6
:030000000200A259
:0C00A200787FE4F6D8FD7581260200E9A5
:10000E00BB010CE58229F582E5833AF583E02250A7
:10001E0006E92582F8E622BBFE06E92582F8E222F1
:0D002E00E58229F582E5833AF583E493220B
:10003B00EF8DF0A4A8F0CF8CF0A428CE8DF0A42ED9
:02004B00FE2293
:10004D00BC000BBE0029EF8DF084FFADF022E4CC97
:10005D00F875F008EF2FFFEE33FEEC33FCEE9DEC60
:10006D00984005FCEE9DFE0FD5F0E9E4CEFD22EDA6
:10007D00F8F5F0EE8420D21CFEADF075F008EF2FF0
:10008D00FFED33FD4007985006D5F0F222C398FDE1
:05009D000FD5F0EA227E
:1000AE00020182E493A3F8E493A34003F68001F2E5
:1000BE0008DFF48029E493A3F85407240CC8C33353
:1000CE00C4540F4420C8834004F456800146F6DF22
:1000DE00E4800B01020408102040809003A1E47E0E
:1000EE00019360BCA3FF543F30E509541FFEE49317
:1000FE00A360010ECF54C025E060A840B8E493A3DE
:10010E00FAE493A3F8E493A3C8C582C8CAC583CA08
:10011E00F0A3C8C582C8CAC583CADFE9DEE780BEC0
:0103AA000052
:00000001FF
