:1000C00075A0FE1200E512006E8F0AE50A60F76463
:1000D0000170F3050BC3E50B94027480948040E635
:0500E000E4F50B80E1D6
:03000B0002000EE2
:0F000E00C0E0C0D075D000C000C004C005C0075E
:10001D00758A18758CFC0509E50970020508C394ED
:10002D00F4E5089401402D750800750900E50BFDF8
:10003D007C00700DAFA07801EF08800123D8FDF58D
:10004D00A0ED64014C700DAFA07801EF08800103A5
:04005D00D8FDF5A035
:0D006100D007D005D004D000D0D0D0E032C0
:1000E5005389F0438901758A18758CFCC28DD28CB1
:0700F500D2A9D2AFC2B9226B
:10006E00E4F50C20B1107F141200FC30B1FD7F14AA
:10007E001200FC750C0120B0107F141200FC30B081
:10008E00FD7F141200FC750C0220B2107F141200BA
:10009E00FC30B2FD7F141200FC750C0320B3107FF0
:1000AE00141200FC30B3FD7F141200FC750C04AF6B
:0100BE000C35
:0100BF00221E
:1000FC00AE071FEE600A7E027DEFDDFEDEFC80F0B7
:01010C0022D0
:0300000002010DED
:0C010D00787FE4F6D8FD75810C0200C07C
:00000001FF
