:100157001201D31201058F11EF640170380513E501
:100167001375F0058485F013AF137E00EF7002F569
:1001770010EF64014E7003751019EF64024E70039F
:10018700751032EF64034E700375104BEF64074E22
:100197007003751064E513FD7C007F0112009A80DF
:0101A700B2A5
:03000B000201A847
:1001A800C0E0C0F0C0D0758AA4758CFF0512E512B6
:1001B80075F0648485F012E512C395105004D2904E
:0B01C8008002C290D0D0D0F0D0E03216
:1001EA00AE071FEE600A7E027DEFDDFEDEFC80F0C8
:0101FA0022E2
:1001D3005389F0438901758AA4758CFFC28DD28C33
:0701E300D2A9D2AFC2B9227C
:0A01FB0008083F065B4F666D7D07A4
:10009A00EF14B4080050549000AF75F003A4C58360
:1000AA0025F0C583730200C70200CB0200CF02000D
:1000BA00D30200D70200DF0200E70200EFD2A480D9
:1000CA000ED2A48012D2A48016D2A4801AC2A4D2BC
:1000DA00A3D2A28016C2A4D2A3C2A2800EC2A4C274
:1000EA00A3D2A28006C2A4C2A3C2A274082DF8E6B3
:0B00FA00F5807F011201EAE4F580228E
:10010500E4F51420B1107F141201EA30B1FD7F141B
:100115001201EA75140120B0107F141201EA30B003
:10012500FD7F141201EA75140220B2107F1412012A
:10013500EA30B2FD7F141201EA75140320B3107F73
:10014500141201EA30B3FD7F141201EA751404AFED
:010155001495
:010156002286
:0300000002000EED
:0C000E00787FE4F6D8FD758114020055DF
:10001A00020157E493A3F8E493A34003F68001F2A4
:10002A0008DFF48029E493A3F85407240CC8C333E7
:10003A00C4540F4420C8834004F456800146F6DFB6
:10004A00E4800B01020408102040809001FBE47E4A
:10005A00019360BCA3FF543F30E509541FFEE493AB
:10006A00A360010ECF54C025E060A840B8E493A372
:10007A00FAE493A3F8E493A3C8C582C8CAC583CA9D
:10008A00F0A3C8C582C8CAC583CADFE9DEE780BE55
:0102050000F8
:00000001FF
