:10014400E4FDFC7F0112008F1200F28F10E51060B5
:10015400F77FE87E03120168E510FD7C007F011241
:04016400008F80E4A4
:10018A00AE071FEE600A7E027DEFDDFEDEFC80F028
:01019A002242
:1000F200E4F51120B1107F1412018A30B1FD7F1492
:1001020012018A75110120B0107F1412018A30B0D9
:10011200FD7F1412018A75110220B2107F141201A0
:100122008A30B2FD7F1412018A75110320B3107F49
:100132001412018A30B3FD7F1412018A751104AFC3
:0101420011AB
:010143002299
:0A019B0008083F065B4F666D7D0704
:10008F00EF14B4080050549000A475F003A4C58376
:10009F0025F0C583730200BC0200C00200C4020039
:1000AF00C80200CC0200D40200DC0200E4D2A4801B
:1000BF000ED2A48012D2A48016D2A4801AC2A4D2C7
:1000CF00A3D2A28016C2A4D2A3C2A2800EC2A4C27F
:1000DF00A3D2A28006C2A4C2A3C2A274082DF8E6BE
:0300EF00F5802277
:0501A600007FE3DFFE15
:0101AB002231
:04016800AD07AC062D
:10016C00E4FBFAED25E0FFEC33FEC3EB9FEA9E5077
:0D017C000CB2A51201A60BBB00010A80E623
:010189002253
:03000000020003F8
:0C000300787FE4F6D8FD75811102004AF8
:10000F00020144E493A3F8E493A34003F68001F2C2
:10001F0008DFF48029E493A3F85407240CC8C333F2
:10002F00C4540F4420C8834004F456800146F6DFC1
:10003F00E4800B010204081020408090019BE47EB5
:10004F00019360BCA3FF543F30E509541FFEE493B6
:10005F00A360010ECF54C025E060A840B8E493A37D
:10006F00FAE493A3F8E493A3C8C582C8CAC583CAA8
:10007F00F0A3C8C582C8CAC583CADFE9DEE780BE60
:0101A5000059
:00000001FF
